{
  "contractName": "SmartContract",
  "abi": [
    {
      "inputs": [
        {
          "internalType": "string",
          "name": "_name",
          "type": "string"
        },
        {
          "internalType": "string",
          "name": "_symbol",
          "type": "string"
        },
        {
          "internalType": "string",
          "name": "_initBaseURI",
          "type": "string"
        },
        {
          "internalType": "string",
          "name": "_initNotRevealedUri",
          "type": "string"
        }
      ],
      "stateMutability": "nonpayable",
      "type": "constructor"
    },
    {
      "anonymous": false,
      "inputs": [
        {
          "indexed": true,
          "internalType": "address",
          "name": "owner",
          "type": "address"
        },
        {
          "indexed": true,
          "internalType": "address",
          "name": "approved",
          "type": "address"
        },
        {
          "indexed": true,
          "internalType": "uint256",
          "name": "tokenId",
          "type": "uint256"
        }
      ],
      "name": "Approval",
      "type": "event"
    },
    {
      "anonymous": false,
      "inputs": [
        {
          "indexed": true,
          "internalType": "address",
          "name": "owner",
          "type": "address"
        },
        {
          "indexed": true,
          "internalType": "address",
          "name": "operator",
          "type": "address"
        },
        {
          "indexed": false,
          "internalType": "bool",
          "name": "approved",
          "type": "bool"
        }
      ],
      "name": "ApprovalForAll",
      "type": "event"
    },
    {
      "anonymous": false,
      "inputs": [
        {
          "indexed": true,
          "internalType": "address",
          "name": "previousOwner",
          "type": "address"
        },
        {
          "indexed": true,
          "internalType": "address",
          "name": "newOwner",
          "type": "address"
        }
      ],
      "name": "OwnershipTransferred",
      "type": "event"
    },
    {
      "anonymous": false,
      "inputs": [
        {
          "indexed": true,
          "internalType": "address",
          "name": "from",
          "type": "address"
        },
        {
          "indexed": true,
          "internalType": "address",
          "name": "to",
          "type": "address"
        },
        {
          "indexed": true,
          "internalType": "uint256",
          "name": "tokenId",
          "type": "uint256"
        }
      ],
      "name": "Transfer",
      "type": "event"
    },
    {
      "inputs": [
        {
          "internalType": "address",
          "name": "",
          "type": "address"
        }
      ],
      "name": "addressMintedBalance",
      "outputs": [
        {
          "internalType": "uint256",
          "name": "",
          "type": "uint256"
        }
      ],
      "stateMutability": "view",
      "type": "function",
      "constant": true
    },
    {
      "inputs": [
        {
          "internalType": "address",
          "name": "to",
          "type": "address"
        },
        {
          "internalType": "uint256",
          "name": "tokenId",
          "type": "uint256"
        }
      ],
      "name": "approve",
      "outputs": [],
      "stateMutability": "nonpayable",
      "type": "function"
    },
    {
      "inputs": [
        {
          "internalType": "address",
          "name": "owner",
          "type": "address"
        }
      ],
      "name": "balanceOf",
      "outputs": [
        {
          "internalType": "uint256",
          "name": "",
          "type": "uint256"
        }
      ],
      "stateMutability": "view",
      "type": "function",
      "constant": true
    },
    {
      "inputs": [],
      "name": "baseExtension",
      "outputs": [
        {
          "internalType": "string",
          "name": "",
          "type": "string"
        }
      ],
      "stateMutability": "view",
      "type": "function",
      "constant": true
    },
    {
      "inputs": [],
      "name": "baseURI",
      "outputs": [
        {
          "internalType": "string",
          "name": "",
          "type": "string"
        }
      ],
      "stateMutability": "view",
      "type": "function",
      "constant": true
    },
    {
      "inputs": [],
      "name": "cost",
      "outputs": [
        {
          "internalType": "uint256",
          "name": "",
          "type": "uint256"
        }
      ],
      "stateMutability": "view",
      "type": "function",
      "constant": true
    },
    {
      "inputs": [
        {
          "internalType": "uint256",
          "name": "tokenId",
          "type": "uint256"
        }
      ],
      "name": "getApproved",
      "outputs": [
        {
          "internalType": "address",
          "name": "",
          "type": "address"
        }
      ],
      "stateMutability": "view",
      "type": "function",
      "constant": true
    },
    {
      "inputs": [
        {
          "internalType": "address",
          "name": "owner",
          "type": "address"
        },
        {
          "internalType": "address",
          "name": "operator",
          "type": "address"
        }
      ],
      "name": "isApprovedForAll",
      "outputs": [
        {
          "internalType": "bool",
          "name": "",
          "type": "bool"
        }
      ],
      "stateMutability": "view",
      "type": "function",
      "constant": true
    },
    {
      "inputs": [],
      "name": "maxMintAmount",
      "outputs": [
        {
          "internalType": "uint256",
          "name": "",
          "type": "uint256"
        }
      ],
      "stateMutability": "view",
      "type": "function",
      "constant": true
    },
    {
      "inputs": [],
      "name": "maxSupply",
      "outputs": [
        {
          "internalType": "uint256",
          "name": "",
          "type": "uint256"
        }
      ],
      "stateMutability": "view",
      "type": "function",
      "constant": true
    },
    {
      "inputs": [],
      "name": "name",
      "outputs": [
        {
          "internalType": "string",
          "name": "",
          "type": "string"
        }
      ],
      "stateMutability": "view",
      "type": "function",
      "constant": true
    },
    {
      "inputs": [],
      "name": "nftPerAddressLimit",
      "outputs": [
        {
          "internalType": "uint256",
          "name": "",
          "type": "uint256"
        }
      ],
      "stateMutability": "view",
      "type": "function",
      "constant": true
    },
    {
      "inputs": [],
      "name": "notRevealedUri",
      "outputs": [
        {
          "internalType": "string",
          "name": "",
          "type": "string"
        }
      ],
      "stateMutability": "view",
      "type": "function",
      "constant": true
    },
    {
      "inputs": [],
      "name": "onlyWhitelisted",
      "outputs": [
        {
          "internalType": "bool",
          "name": "",
          "type": "bool"
        }
      ],
      "stateMutability": "view",
      "type": "function",
      "constant": true
    },
    {
      "inputs": [],
      "name": "owner",
      "outputs": [
        {
          "internalType": "address",
          "name": "",
          "type": "address"
        }
      ],
      "stateMutability": "view",
      "type": "function",
      "constant": true
    },
    {
      "inputs": [
        {
          "internalType": "uint256",
          "name": "tokenId",
          "type": "uint256"
        }
      ],
      "name": "ownerOf",
      "outputs": [
        {
          "internalType": "address",
          "name": "",
          "type": "address"
        }
      ],
      "stateMutability": "view",
      "type": "function",
      "constant": true
    },
    {
      "inputs": [],
      "name": "paused",
      "outputs": [
        {
          "internalType": "bool",
          "name": "",
          "type": "bool"
        }
      ],
      "stateMutability": "view",
      "type": "function",
      "constant": true
    },
    {
      "inputs": [],
      "name": "renounceOwnership",
      "outputs": [],
      "stateMutability": "nonpayable",
      "type": "function"
    },
    {
      "inputs": [],
      "name": "revealed",
      "outputs": [
        {
          "internalType": "bool",
          "name": "",
          "type": "bool"
        }
      ],
      "stateMutability": "view",
      "type": "function",
      "constant": true
    },
    {
      "inputs": [
        {
          "internalType": "address",
          "name": "from",
          "type": "address"
        },
        {
          "internalType": "address",
          "name": "to",
          "type": "address"
        },
        {
          "internalType": "uint256",
          "name": "tokenId",
          "type": "uint256"
        }
      ],
      "name": "safeTransferFrom",
      "outputs": [],
      "stateMutability": "nonpayable",
      "type": "function"
    },
    {
      "inputs": [
        {
          "internalType": "address",
          "name": "from",
          "type": "address"
        },
        {
          "internalType": "address",
          "name": "to",
          "type": "address"
        },
        {
          "internalType": "uint256",
          "name": "tokenId",
          "type": "uint256"
        },
        {
          "internalType": "bytes",
          "name": "_data",
          "type": "bytes"
        }
      ],
      "name": "safeTransferFrom",
      "outputs": [],
      "stateMutability": "nonpayable",
      "type": "function"
    },
    {
      "inputs": [
        {
          "internalType": "address",
          "name": "operator",
          "type": "address"
        },
        {
          "internalType": "bool",
          "name": "approved",
          "type": "bool"
        }
      ],
      "name": "setApprovalForAll",
      "outputs": [],
      "stateMutability": "nonpayable",
      "type": "function"
    },
    {
      "inputs": [
        {
          "internalType": "bytes4",
          "name": "interfaceId",
          "type": "bytes4"
        }
      ],
      "name": "supportsInterface",
      "outputs": [
        {
          "internalType": "bool",
          "name": "",
          "type": "bool"
        }
      ],
      "stateMutability": "view",
      "type": "function",
      "constant": true
    },
    {
      "inputs": [],
      "name": "symbol",
      "outputs": [
        {
          "internalType": "string",
          "name": "",
          "type": "string"
        }
      ],
      "stateMutability": "view",
      "type": "function",
      "constant": true
    },
    {
      "inputs": [
        {
          "internalType": "uint256",
          "name": "index",
          "type": "uint256"
        }
      ],
      "name": "tokenByIndex",
      "outputs": [
        {
          "internalType": "uint256",
          "name": "",
          "type": "uint256"
        }
      ],
      "stateMutability": "view",
      "type": "function",
      "constant": true
    },
    {
      "inputs": [
        {
          "internalType": "address",
          "name": "owner",
          "type": "address"
        },
        {
          "internalType": "uint256",
          "name": "index",
          "type": "uint256"
        }
      ],
      "name": "tokenOfOwnerByIndex",
      "outputs": [
        {
          "internalType": "uint256",
          "name": "",
          "type": "uint256"
        }
      ],
      "stateMutability": "view",
      "type": "function",
      "constant": true
    },
    {
      "inputs": [],
      "name": "totalSupply",
      "outputs": [
        {
          "internalType": "uint256",
          "name": "",
          "type": "uint256"
        }
      ],
      "stateMutability": "view",
      "type": "function",
      "constant": true
    },
    {
      "inputs": [
        {
          "internalType": "address",
          "name": "from",
          "type": "address"
        },
        {
          "internalType": "address",
          "name": "to",
          "type": "address"
        },
        {
          "internalType": "uint256",
          "name": "tokenId",
          "type": "uint256"
        }
      ],
      "name": "transferFrom",
      "outputs": [],
      "stateMutability": "nonpayable",
      "type": "function"
    },
    {
      "inputs": [
        {
          "internalType": "address",
          "name": "newOwner",
          "type": "address"
        }
      ],
      "name": "transferOwnership",
      "outputs": [],
      "stateMutability": "nonpayable",
      "type": "function"
    },
    {
      "inputs": [
        {
          "internalType": "uint256",
          "name": "",
          "type": "uint256"
        }
      ],
      "name": "vipAddresses",
      "outputs": [
        {
          "internalType": "address",
          "name": "",
          "type": "address"
        }
      ],
      "stateMutability": "view",
      "type": "function",
      "constant": true
    },
    {
      "inputs": [
        {
          "internalType": "uint256",
          "name": "",
          "type": "uint256"
        }
      ],
      "name": "vipMaxMinted",
      "outputs": [
        {
          "internalType": "uint256",
          "name": "",
          "type": "uint256"
        }
      ],
      "stateMutability": "view",
      "type": "function",
      "constant": true
    },
    {
      "inputs": [
        {
          "internalType": "uint256",
          "name": "",
          "type": "uint256"
        }
      ],
      "name": "whitelistedAddresses",
      "outputs": [
        {
          "internalType": "address",
          "name": "",
          "type": "address"
        }
      ],
      "stateMutability": "view",
      "type": "function",
      "constant": true
    },
    {
      "inputs": [
        {
          "internalType": "uint256",
          "name": "_mintAmount",
          "type": "uint256"
        }
      ],
      "name": "mint",
      "outputs": [],
      "stateMutability": "payable",
      "type": "function",
      "payable": true
    },
    {
      "inputs": [
        {
          "internalType": "address",
          "name": "_user",
          "type": "address"
        }
      ],
      "name": "qtyLeftForVIP",
      "outputs": [
        {
          "internalType": "uint256",
          "name": "",
          "type": "uint256"
        }
      ],
      "stateMutability": "view",
      "type": "function",
      "constant": true
    },
    {
      "inputs": [
        {
          "internalType": "address",
          "name": "_user",
          "type": "address"
        }
      ],
      "name": "qtyLeftForUser",
      "outputs": [
        {
          "internalType": "uint256",
          "name": "",
          "type": "uint256"
        }
      ],
      "stateMutability": "view",
      "type": "function",
      "constant": true
    },
    {
      "inputs": [
        {
          "internalType": "address",
          "name": "_user",
          "type": "address"
        }
      ],
      "name": "isWhitelisted",
      "outputs": [
        {
          "internalType": "bool",
          "name": "",
          "type": "bool"
        }
      ],
      "stateMutability": "view",
      "type": "function",
      "constant": true
    },
    {
      "inputs": [
        {
          "internalType": "address",
          "name": "_user",
          "type": "address"
        }
      ],
      "name": "isVIP",
      "outputs": [
        {
          "internalType": "bool",
          "name": "",
          "type": "bool"
        }
      ],
      "stateMutability": "view",
      "type": "function",
      "constant": true
    },
    {
      "inputs": [
        {
          "internalType": "address",
          "name": "_user",
          "type": "address"
        }
      ],
      "name": "vipMintAmount",
      "outputs": [
        {
          "internalType": "uint256",
          "name": "",
          "type": "uint256"
        }
      ],
      "stateMutability": "view",
      "type": "function",
      "constant": true
    },
    {
      "inputs": [
        {
          "internalType": "address",
          "name": "_owner",
          "type": "address"
        }
      ],
      "name": "walletOfOwner",
      "outputs": [
        {
          "internalType": "uint256[]",
          "name": "",
          "type": "uint256[]"
        }
      ],
      "stateMutability": "view",
      "type": "function",
      "constant": true
    },
    {
      "inputs": [
        {
          "internalType": "uint256",
          "name": "tokenId",
          "type": "uint256"
        }
      ],
      "name": "tokenURI",
      "outputs": [
        {
          "internalType": "string",
          "name": "",
          "type": "string"
        }
      ],
      "stateMutability": "view",
      "type": "function",
      "constant": true
    },
    {
      "inputs": [],
      "name": "reveal",
      "outputs": [],
      "stateMutability": "nonpayable",
      "type": "function"
    },
    {
      "inputs": [
        {
          "internalType": "uint256",
          "name": "_limit",
          "type": "uint256"
        }
      ],
      "name": "setNftPerAddressLimit",
      "outputs": [],
      "stateMutability": "nonpayable",
      "type": "function"
    },
    {
      "inputs": [
        {
          "internalType": "uint256",
          "name": "_newCost",
          "type": "uint256"
        }
      ],
      "name": "setCost",
      "outputs": [],
      "stateMutability": "nonpayable",
      "type": "function"
    },
    {
      "inputs": [
        {
          "internalType": "uint256",
          "name": "_newmaxMintAmount",
          "type": "uint256"
        }
      ],
      "name": "setmaxMintAmount",
      "outputs": [],
      "stateMutability": "nonpayable",
      "type": "function"
    },
    {
      "inputs": [
        {
          "internalType": "string",
          "name": "_newBaseURI",
          "type": "string"
        }
      ],
      "name": "setBaseURI",
      "outputs": [],
      "stateMutability": "nonpayable",
      "type": "function"
    },
    {
      "inputs": [
        {
          "internalType": "string",
          "name": "_newBaseExtension",
          "type": "string"
        }
      ],
      "name": "setBaseExtension",
      "outputs": [],
      "stateMutability": "nonpayable",
      "type": "function"
    },
    {
      "inputs": [
        {
          "internalType": "string",
          "name": "_notRevealedURI",
          "type": "string"
        }
      ],
      "name": "setNotRevealedURI",
      "outputs": [],
      "stateMutability": "nonpayable",
      "type": "function"
    },
    {
      "inputs": [
        {
          "internalType": "bool",
          "name": "_state",
          "type": "bool"
        }
      ],
      "name": "pause",
      "outputs": [],
      "stateMutability": "nonpayable",
      "type": "function"
    },
    {
      "inputs": [
        {
          "internalType": "bool",
          "name": "_state",
          "type": "bool"
        }
      ],
      "name": "setOnlyWhitelisted",
      "outputs": [],
      "stateMutability": "nonpayable",
      "type": "function"
    },
    {
      "inputs": [
        {
          "internalType": "address[]",
          "name": "_users",
          "type": "address[]"
        }
      ],
      "name": "whitelistUsers",
      "outputs": [],
      "stateMutability": "nonpayable",
      "type": "function"
    },
    {
      "inputs": [
        {
          "internalType": "address[]",
          "name": "_users",
          "type": "address[]"
        }
      ],
      "name": "vipUsers",
      "outputs": [],
      "stateMutability": "nonpayable",
      "type": "function"
    },
    {
      "inputs": [
        {
          "internalType": "uint256[]",
          "name": "_numberofmints",
          "type": "uint256[]"
        }
      ],
      "name": "vipUsersMaxMint",
      "outputs": [],
      "stateMutability": "nonpayable",
      "type": "function"
    },
    {
      "inputs": [],
      "name": "withdraw",
      "outputs": [],
      "stateMutability": "payable",
      "type": "function",
      "payable": true
    }
  ],
  "bytecode": "0x60c06040526005608081905264173539b7b760d91b60a09081526200002891600c919062000219565b5066f5232269808000600e5561270f600f55601460108190556011556012805462ffffff1916620100001790553480156200006257600080fd5b506040516200364a3803806200364a83398101604081905262000085916200036a565b8351849084906200009e90600090602085019062000219565b508051620000b490600190602084019062000219565b505050620000d1620000cb620000f160201b60201c565b620000f5565b620000dc8262000147565b620000e781620001af565b50505050620004a6565b3390565b600a80546001600160a01b038381166001600160a01b0319831681179093556040519116919082907f8be0079c531659141344cd1fd0a4f28419497f9722a3daafe3b4186f6b6457e090600090a35050565b62000151620000f1565b6001600160a01b0316620001646200020a565b6001600160a01b031614620001965760405162461bcd60e51b81526004016200018d906200041e565b60405180910390fd5b8051620001ab90600b90602084019062000219565b5050565b620001b9620000f1565b6001600160a01b0316620001cc6200020a565b6001600160a01b031614620001f55760405162461bcd60e51b81526004016200018d906200041e565b8051620001ab90600d90602084019062000219565b600a546001600160a01b031690565b828054620002279062000453565b90600052602060002090601f0160209004810192826200024b576000855562000296565b82601f106200026657805160ff191683800117855562000296565b8280016001018555821562000296579182015b828111156200029657825182559160200191906001019062000279565b50620002a4929150620002a8565b5090565b5b80821115620002a45760008155600101620002a9565b600082601f830112620002d0578081fd5b81516001600160401b0380821115620002ed57620002ed62000490565b6040516020601f8401601f191682018101838111838210171562000315576200031562000490565b60405283825285840181018710156200032c578485fd5b8492505b838310156200034f578583018101518284018201529182019162000330565b838311156200036057848185840101525b5095945050505050565b6000806000806080858703121562000380578384fd5b84516001600160401b038082111562000397578586fd5b620003a588838901620002bf565b95506020870151915080821115620003bb578485fd5b620003c988838901620002bf565b94506040870151915080821115620003df578384fd5b620003ed88838901620002bf565b9350606087015191508082111562000403578283fd5b506200041287828801620002bf565b91505092959194509250565b6020808252818101527f4f776e61626c653a2063616c6c6572206973206e6f7420746865206f776e6572604082015260600190565b6002810460018216806200046857607f821691505b602082108114156200048a57634e487b7160e01b600052602260045260246000fd5b50919050565b634e487b7160e01b600052604160045260246000fd5b61319480620004b66000396000f3fe60806040526004361061031a5760003560e01c80636352211e116101ab578063ba7d2c76116100f7578063e7a971d411610095578063eea8a0ed1161006f578063eea8a0ed146108b6578063f2c4ce1e146108d6578063f2fde38b146108f6578063f4201c3c146109165761031a565b8063e7a971d414610856578063e985e9c514610876578063edec5f27146108965761031a565b8063ce357e6d116100d1578063ce357e6d146107e1578063d0eb26b014610801578063d5abeb0114610821578063da3ef23f146108365761031a565b8063ba7d2c7614610797578063c6682862146107ac578063c87b56dd146107c15761031a565b806395d89b4111610164578063a22cb4651161013e578063a22cb46514610722578063a475b5dd14610742578063b88d4fde14610757578063ba4e5c49146107775761031a565b806395d89b41146106e55780639c70b512146106fa578063a0712d681461070f5761031a565b80636352211e146106465780636c0360eb1461066657806370a082311461067b578063715018a61461069b5780637f00c7a6146106b05780638da5cb5b146106d05761031a565b8063324ce95c1161026a57806344a0d68a1161022357806351830227116101fd57806351830227146105dc57806355f804b3146105f15780635c975abb146106115780636045051a146106265761031a565b806344a0d68a1461057c57806348d396981461059c5780634f6ccce7146105bc5761031a565b8063324ce95c146104c75780633af32abf146104e75780633c952764146105075780633ccfd60b1461052757806342842e0e1461052f578063438b63001461054f5761031a565b806313faede6116102d7578063239c70ae116102b1578063239c70ae1461045257806323b872dd1461046757806329080d46146104875780632f745c59146104a75761031a565b806313faede6146103fb57806318160ddd1461041d57806318cae269146104325761031a565b806301ffc9a71461031f57806302329a291461035557806306fdde0314610377578063081812fc14610399578063081c8c44146103c6578063095ea7b3146103db575b600080fd5b34801561032b57600080fd5b5061033f61033a36600461274d565b610936565b60405161034c9190612969565b60405180910390f35b34801561036157600080fd5b50610375610370366004612733565b610963565b005b34801561038357600080fd5b5061038c6109be565b60405161034c9190612974565b3480156103a557600080fd5b506103b96103b43660046127cb565b610a50565b60405161034c91906128d4565b3480156103d257600080fd5b5061038c610a93565b3480156103e757600080fd5b506103756103f63660046126ca565b610b21565b34801561040757600080fd5b50610410610bb9565b60405161034c9190612ff9565b34801561042957600080fd5b50610410610bbf565b34801561043e57600080fd5b5061041061044d3660046125a1565b610bc5565b34801561045e57600080fd5b50610410610bd7565b34801561047357600080fd5b506103756104823660046125ed565b610bdd565b34801561049357600080fd5b506104106104a23660046127cb565b610c15565b3480156104b357600080fd5b506104106104c23660046126ca565b610c36565b3480156104d357600080fd5b506103756104e23660046126f3565b610c88565b3480156104f357600080fd5b5061033f6105023660046125a1565b610cdf565b34801561051357600080fd5b50610375610522366004612733565b610dc8565b610375610e23565b34801561053b57600080fd5b5061037561054a3660046125ed565b610ece565b34801561055b57600080fd5b5061056f61056a3660046125a1565b610ee9565b60405161034c9190612925565b34801561058857600080fd5b506103756105973660046127cb565b610fa7565b3480156105a857600080fd5b506104106105b73660046125a1565b610feb565b3480156105c857600080fd5b506104106105d73660046127cb565b61101c565b3480156105e857600080fd5b5061033f611077565b3480156105fd57600080fd5b5061037561060c366004612785565b611085565b34801561061d57600080fd5b5061033f6110db565b34801561063257600080fd5b506103b96106413660046127cb565b6110e4565b34801561065257600080fd5b506103b96106613660046127cb565b61110e565b34801561067257600080fd5b5061038c611143565b34801561068757600080fd5b506104106106963660046125a1565b611150565b3480156106a757600080fd5b50610375611194565b3480156106bc57600080fd5b506103756106cb3660046127cb565b6111df565b3480156106dc57600080fd5b506103b9611223565b3480156106f157600080fd5b5061038c611232565b34801561070657600080fd5b5061033f611241565b61037561071d3660046127cb565b611250565b34801561072e57600080fd5b5061037561073d3660046126a1565b61145d565b34801561074e57600080fd5b5061037561146f565b34801561076357600080fd5b50610375610772366004612628565b6114bf565b34801561078357600080fd5b506103b96107923660046127cb565b6114fe565b3480156107a357600080fd5b5061041061150e565b3480156107b857600080fd5b5061038c611514565b3480156107cd57600080fd5b5061038c6107dc3660046127cb565b611521565b3480156107ed57600080fd5b506104106107fc3660046125a1565b611648565b34801561080d57600080fd5b5061037561081c3660046127cb565b6116e2565b34801561082d57600080fd5b50610410611726565b34801561084257600080fd5b50610375610851366004612785565b61172c565b34801561086257600080fd5b506104106108713660046125a1565b61177e565b34801561088257600080fd5b5061033f6108913660046125bb565b6117b8565b3480156108a257600080fd5b506103756108b13660046126f3565b6117e6565b3480156108c257600080fd5b506103756108d13660046126f3565b61183d565b3480156108e257600080fd5b506103756108f1366004612785565b611894565b34801561090257600080fd5b506103756109113660046125a1565b6118e6565b34801561092257600080fd5b5061033f6109313660046125a1565b611954565b60006001600160e01b0319821663780e9d6360e01b148061095b575061095b826119c4565b90505b919050565b61096b611a04565b6001600160a01b031661097c611223565b6001600160a01b0316146109ab5760405162461bcd60e51b81526004016109a290612d84565b60405180910390fd5b6012805460ff1916911515919091179055565b6060600080546109cd9061309c565b80601f01602080910402602001604051908101604052809291908181526020018280546109f99061309c565b8015610a465780601f10610a1b57610100808354040283529160200191610a46565b820191906000526020600020905b815481529060010190602001808311610a2957829003601f168201915b5050505050905090565b6000610a5b82611a08565b610a775760405162461bcd60e51b81526004016109a290612d38565b506000908152600460205260409020546001600160a01b031690565b600d8054610aa09061309c565b80601f0160208091040260200160405190810160405280929190818152602001828054610acc9061309c565b8015610b195780601f10610aee57610100808354040283529160200191610b19565b820191906000526020600020905b815481529060010190602001808311610afc57829003601f168201915b505050505081565b6000610b2c8261110e565b9050806001600160a01b0316836001600160a01b03161415610b605760405162461bcd60e51b81526004016109a290612e81565b806001600160a01b0316610b72611a04565b6001600160a01b03161480610b8e5750610b8e81610891611a04565b610baa5760405162461bcd60e51b81526004016109a290612b9f565b610bb48383611a25565b505050565b600e5481565b60085490565b60166020526000908152604090205481565b60105481565b610bee610be8611a04565b82611a93565b610c0a5760405162461bcd60e51b81526004016109a290612eee565b610bb4838383611b10565b60158181548110610c2557600080fd5b600091825260209091200154905081565b6000610c4183611150565b8210610c5f5760405162461bcd60e51b81526004016109a290612987565b506001600160a01b03919091166000908152600660209081526040808320938352929052205490565b610c90611a04565b6001600160a01b0316610ca1611223565b6001600160a01b031614610cc75760405162461bcd60e51b81526004016109a290612d84565b610cd36015600061237c565b610bb46015838361239a565b6000805b601354811015610d4f57826001600160a01b031660138281548110610d1857634e487b7160e01b600052603260045260246000fd5b6000918252602090912001546001600160a01b03161415610d3d57600191505061095e565b80610d47816130d7565b915050610ce3565b5060005b601454811015610dbf57826001600160a01b031660148281548110610d8857634e487b7160e01b600052603260045260246000fd5b6000918252602090912001546001600160a01b03161415610dad57600191505061095e565b80610db7816130d7565b915050610d53565b50600092915050565b610dd0611a04565b6001600160a01b0316610de1611223565b6001600160a01b031614610e075760405162461bcd60e51b81526004016109a290612d84565b60128054911515620100000262ff000019909216919091179055565b610e2b611a04565b6001600160a01b0316610e3c611223565b6001600160a01b031614610e625760405162461bcd60e51b81526004016109a290612d84565b6000336001600160a01b031647604051610e7b906128d1565b60006040518083038185875af1925050503d8060008114610eb8576040519150601f19603f3d011682016040523d82523d6000602084013e610ebd565b606091505b5050905080610ecb57600080fd5b50565b610bb4838383604051806020016040528060008152506114bf565b60606000610ef683611150565b905060008167ffffffffffffffff811115610f2157634e487b7160e01b600052604160045260246000fd5b604051908082528060200260200182016040528015610f4a578160200160208202803683370190505b50905060005b82811015610f9f57610f628582610c36565b828281518110610f8257634e487b7160e01b600052603260045260246000fd5b602090810291909101015280610f97816130d7565b915050610f50565b509392505050565b610faf611a04565b6001600160a01b0316610fc0611223565b6001600160a01b031614610fe65760405162461bcd60e51b81526004016109a290612d84565b600e55565b6001600160a01b0381166000908152601660205260408120546011548290611014908390613059565b949350505050565b6000611026610bbf565b82106110445760405162461bcd60e51b81526004016109a290612f3f565b6008828154811061106557634e487b7160e01b600052603260045260246000fd5b90600052602060002001549050919050565b601254610100900460ff1681565b61108d611a04565b6001600160a01b031661109e611223565b6001600160a01b0316146110c45760405162461bcd60e51b81526004016109a290612d84565b80516110d790600b9060208401906123e5565b5050565b60125460ff1681565b601481815481106110f457600080fd5b6000918252602090912001546001600160a01b0316905081565b6000818152600260205260408120546001600160a01b03168061095b5760405162461bcd60e51b81526004016109a290612c46565b600b8054610aa09061309c565b60006001600160a01b0382166111785760405162461bcd60e51b81526004016109a290612bfc565b506001600160a01b031660009081526003602052604090205490565b61119c611a04565b6001600160a01b03166111ad611223565b6001600160a01b0316146111d35760405162461bcd60e51b81526004016109a290612d84565b6111dd6000611c3d565b565b6111e7611a04565b6001600160a01b03166111f8611223565b6001600160a01b03161461121e5760405162461bcd60e51b81526004016109a290612d84565b601055565b600a546001600160a01b031690565b6060600180546109cd9061309c565b60125462010000900460ff1681565b60125460ff16156112735760405162461bcd60e51b81526004016109a290612db9565b600061127d610bbf565b90506000821161129f5760405162461bcd60e51b81526004016109a290612fc2565b6010548211156112c15760405162461bcd60e51b81526004016109a290612cbf565b600f546112ce838361300e565b11156112ec5760405162461bcd60e51b81526004016109a290612c8f565b6112f4611223565b6001600160a01b0316336001600160a01b03161461140d5760125462010000900460ff161515600114156113845761132b33610cdf565b6113475760405162461bcd60e51b81526004016109a290612f8b565b33600090815260166020526040902054601154611364848361300e565b11156113825760405162461bcd60e51b81526004016109a290612aa1565b505b61138d33611954565b156113e057600061139d33611648565b33600090815260166020526040902054909150816113bb858361300e565b11156113d95760405162461bcd60e51b81526004016109a290612aa1565b505061140d565b81600e546113ee919061303a565b34101561140d5760405162461bcd60e51b81526004016109a290612ec2565b60015b828111610bb457336000908152601660205260408120805491611432836130d7565b9091555061144b905033611446838561300e565b611c8f565b80611455816130d7565b915050611410565b6110d7611468611a04565b8383611ca9565b611477611a04565b6001600160a01b0316611488611223565b6001600160a01b0316146114ae5760405162461bcd60e51b81526004016109a290612d84565b6012805461ff001916610100179055565b6114d06114ca611a04565b83611a93565b6114ec5760405162461bcd60e51b81526004016109a290612eee565b6114f884848484611d4c565b50505050565b601381815481106110f457600080fd5b60115481565b600c8054610aa09061309c565b606061152c82611a08565b6115485760405162461bcd60e51b81526004016109a290612e32565b601254610100900460ff166115e957600d80546115649061309c565b80601f01602080910402602001604051908101604052809291908181526020018280546115909061309c565b80156115dd5780601f106115b2576101008083540402835291602001916115dd565b820191906000526020600020905b8154815290600101906020018083116115c057829003601f168201915b5050505050905061095e565b60006115f3611d7f565b905060008151116116135760405180602001604052806000815250611641565b8061161d84611d8e565b600c6040516020016116319392919061280f565b6040516020818303038152906040525b9392505050565b6000805b601454811015610dbf57826001600160a01b03166014828154811061168157634e487b7160e01b600052603260045260246000fd5b6000918252602090912001546001600160a01b031614156116d057601581815481106116bd57634e487b7160e01b600052603260045260246000fd5b906000526020600020015491505061095e565b806116da816130d7565b91505061164c565b6116ea611a04565b6001600160a01b03166116fb611223565b6001600160a01b0316146117215760405162461bcd60e51b81526004016109a290612d84565b601155565b600f5481565b611734611a04565b6001600160a01b0316611745611223565b6001600160a01b03161461176b5760405162461bcd60e51b81526004016109a290612d84565b80516110d790600c9060208401906123e5565b6001600160a01b038116600090815260166020526040812054816117a184611648565b905060006117af8383613059565b95945050505050565b6001600160a01b03918216600090815260056020908152604080832093909416825291909152205460ff1690565b6117ee611a04565b6001600160a01b03166117ff611223565b6001600160a01b0316146118255760405162461bcd60e51b81526004016109a290612d84565b6118316013600061237c565b610bb460138383612459565b611845611a04565b6001600160a01b0316611856611223565b6001600160a01b03161461187c5760405162461bcd60e51b81526004016109a290612d84565b6118886014600061237c565b610bb460148383612459565b61189c611a04565b6001600160a01b03166118ad611223565b6001600160a01b0316146118d35760405162461bcd60e51b81526004016109a290612d84565b80516110d790600d9060208401906123e5565b6118ee611a04565b6001600160a01b03166118ff611223565b6001600160a01b0316146119255760405162461bcd60e51b81526004016109a290612d84565b6001600160a01b03811661194b5760405162461bcd60e51b81526004016109a290612a24565b610ecb81611c3d565b6000805b601454811015610dbf57826001600160a01b03166014828154811061198d57634e487b7160e01b600052603260045260246000fd5b6000918252602090912001546001600160a01b031614156119b257600191505061095e565b806119bc816130d7565b915050611958565b60006001600160e01b031982166380ac58cd60e01b14806119f557506001600160e01b03198216635b5e139f60e01b145b8061095b575061095b82611ea9565b3390565b6000908152600260205260409020546001600160a01b0316151590565b600081815260046020526040902080546001600160a01b0319166001600160a01b0384169081179091558190611a5a8261110e565b6001600160a01b03167f8c5be1e5ebec7d5bd14f71427d1e84f3dd0314c0f7b2291e5b200ac8c7c3b92560405160405180910390a45050565b6000611a9e82611a08565b611aba5760405162461bcd60e51b81526004016109a290612b53565b6000611ac58361110e565b9050806001600160a01b0316846001600160a01b03161480611b005750836001600160a01b0316611af584610a50565b6001600160a01b0316145b80611014575061101481856117b8565b826001600160a01b0316611b238261110e565b6001600160a01b031614611b495760405162461bcd60e51b81526004016109a290612de9565b6001600160a01b038216611b6f5760405162461bcd60e51b81526004016109a290612ad8565b611b7a838383611ec2565b611b85600082611a25565b6001600160a01b0383166000908152600360205260408120805460019290611bae908490613059565b90915550506001600160a01b0382166000908152600360205260408120805460019290611bdc90849061300e565b909155505060008181526002602052604080822080546001600160a01b0319166001600160a01b0386811691821790925591518493918716917fddf252ad1be2c89b69c2b068fc378daa952ba7f163c4a11628f55a4df523b3ef91a4505050565b600a80546001600160a01b038381166001600160a01b0319831681179093556040519116919082907f8be0079c531659141344cd1fd0a4f28419497f9722a3daafe3b4186f6b6457e090600090a35050565b6110d7828260405180602001604052806000815250611f4b565b816001600160a01b0316836001600160a01b03161415611cdb5760405162461bcd60e51b81526004016109a290612b1c565b6001600160a01b0383811660008181526005602090815260408083209487168084529490915290819020805460ff1916851515179055517f17307eab39ab6107e8899845ad3d59bd9653f200f220920489ca2b5937696c3190611d3f908590612969565b60405180910390a3505050565b611d57848484611b10565b611d6384848484611f7e565b6114f85760405162461bcd60e51b81526004016109a2906129d2565b6060600b80546109cd9061309c565b606081611db357506040805180820190915260018152600360fc1b602082015261095e565b8160005b8115611ddd5780611dc7816130d7565b9150611dd69050600a83613026565b9150611db7565b60008167ffffffffffffffff811115611e0657634e487b7160e01b600052604160045260246000fd5b6040519080825280601f01601f191660200182016040528015611e30576020820181803683370190505b5090505b841561101457611e45600183613059565b9150611e52600a866130f2565b611e5d90603061300e565b60f81b818381518110611e8057634e487b7160e01b600052603260045260246000fd5b60200101906001600160f81b031916908160001a905350611ea2600a86613026565b9450611e34565b6001600160e01b031981166301ffc9a760e01b14919050565b611ecd838383610bb4565b6001600160a01b038316611ee957611ee481612099565b611f0c565b816001600160a01b0316836001600160a01b031614611f0c57611f0c83826120dd565b6001600160a01b038216611f2857611f238161217a565b610bb4565b826001600160a01b0316826001600160a01b031614610bb457610bb48282612253565b611f558383612297565b611f626000848484611f7e565b610bb45760405162461bcd60e51b81526004016109a2906129d2565b6000611f92846001600160a01b0316612376565b1561208e57836001600160a01b031663150b7a02611fae611a04565b8786866040518563ffffffff1660e01b8152600401611fd094939291906128e8565b602060405180830381600087803b158015611fea57600080fd5b505af192505050801561201a575060408051601f3d908101601f1916820190925261201791810190612769565b60015b612074573d808015612048576040519150601f19603f3d011682016040523d82523d6000602084013e61204d565b606091505b50805161206c5760405162461bcd60e51b81526004016109a2906129d2565b805181602001fd5b6001600160e01b031916630a85bd0160e11b149050611014565b506001949350505050565b600880546000838152600960205260408120829055600182018355919091527ff3f7a9fe364faab93b216da50a3214154f22a0a2b415b23a84c8169e8b636ee30155565b600060016120ea84611150565b6120f49190613059565b600083815260076020526040902054909150808214612147576001600160a01b03841660009081526006602090815260408083208584528252808320548484528184208190558352600790915290208190555b5060009182526007602090815260408084208490556001600160a01b039094168352600681528383209183525290812055565b60085460009061218c90600190613059565b600083815260096020526040812054600880549394509092849081106121c257634e487b7160e01b600052603260045260246000fd5b9060005260206000200154905080600883815481106121f157634e487b7160e01b600052603260045260246000fd5b600091825260208083209091019290925582815260099091526040808220849055858252812055600880548061223757634e487b7160e01b600052603160045260246000fd5b6001900381819060005260206000200160009055905550505050565b600061225e83611150565b6001600160a01b039093166000908152600660209081526040808320868452825280832085905593825260079052919091209190915550565b6001600160a01b0382166122bd5760405162461bcd60e51b81526004016109a290612d03565b6122c681611a08565b156122e35760405162461bcd60e51b81526004016109a290612a6a565b6122ef60008383611ec2565b6001600160a01b038216600090815260036020526040812080546001929061231890849061300e565b909155505060008181526002602052604080822080546001600160a01b0319166001600160a01b03861690811790915590518392907fddf252ad1be2c89b69c2b068fc378daa952ba7f163c4a11628f55a4df523b3ef908290a45050565b3b151590565b5080546000825590600052602060002090810190610ecb91906124ac565b8280548282559060005260206000209081019282156123d5579160200282015b828111156123d55782358255916020019190600101906123ba565b506123e19291506124ac565b5090565b8280546123f19061309c565b90600052602060002090601f01602090048101928261241357600085556123d5565b82601f1061242c57805160ff19168380011785556123d5565b828001600101855582156123d5579182015b828111156123d557825182559160200191906001019061243e565b8280548282559060005260206000209081019282156123d5579160200282015b828111156123d55781546001600160a01b0319166001600160a01b03843516178255602090920191600190910190612479565b5b808211156123e157600081556001016124ad565b600067ffffffffffffffff808411156124dc576124dc613132565b604051601f8501601f19168101602001828111828210171561250057612500613132565b60405284815291508183850186101561251857600080fd5b8484602083013760006020868301015250509392505050565b80356001600160a01b038116811461095e57600080fd5b60008083601f840112612559578081fd5b50813567ffffffffffffffff811115612570578182fd5b602083019150836020808302850101111561258a57600080fd5b9250929050565b8035801515811461095e57600080fd5b6000602082840312156125b2578081fd5b61164182612531565b600080604083850312156125cd578081fd5b6125d683612531565b91506125e460208401612531565b90509250929050565b600080600060608486031215612601578081fd5b61260a84612531565b925061261860208501612531565b9150604084013590509250925092565b6000806000806080858703121561263d578081fd5b61264685612531565b935061265460208601612531565b925060408501359150606085013567ffffffffffffffff811115612676578182fd5b8501601f81018713612686578182fd5b612695878235602084016124c1565b91505092959194509250565b600080604083850312156126b3578182fd5b6126bc83612531565b91506125e460208401612591565b600080604083850312156126dc578182fd5b6126e583612531565b946020939093013593505050565b60008060208385031215612705578182fd5b823567ffffffffffffffff81111561271b578283fd5b61272785828601612548565b90969095509350505050565b600060208284031215612744578081fd5b61164182612591565b60006020828403121561275e578081fd5b813561164181613148565b60006020828403121561277a578081fd5b815161164181613148565b600060208284031215612796578081fd5b813567ffffffffffffffff8111156127ac578182fd5b8201601f810184136127bc578182fd5b611014848235602084016124c1565b6000602082840312156127dc578081fd5b5035919050565b600081518084526127fb816020860160208601613070565b601f01601f19169290920160200192915050565b6000845160206128228285838a01613070565b8551918401916128358184848a01613070565b855492019183906002810460018083168061285157607f831692505b85831081141561286f57634e487b7160e01b88526022600452602488fd5b8080156128835760018114612894576128c0565b60ff198516885283880195506128c0565b61289d8b613002565b895b858110156128b85781548a82015290840190880161289f565b505083880195505b50939b9a5050505050505050505050565b90565b6001600160a01b0391909116815260200190565b6001600160a01b038581168252841660208201526040810183905260806060820181905260009061291b908301846127e3565b9695505050505050565b6020808252825182820181905260009190848201906040850190845b8181101561295d57835183529284019291840191600101612941565b50909695505050505050565b901515815260200190565b60006020825261164160208301846127e3565b6020808252602b908201527f455243373231456e756d657261626c653a206f776e657220696e646578206f7560408201526a74206f6620626f756e647360a81b606082015260800190565b60208082526032908201527f4552433732313a207472616e7366657220746f206e6f6e20455243373231526560408201527131b2b4bb32b91034b6b83632b6b2b73a32b960711b606082015260800190565b60208082526026908201527f4f776e61626c653a206e6577206f776e657220697320746865207a65726f206160408201526564647265737360d01b606082015260800190565b6020808252601c908201527f4552433732313a20746f6b656e20616c7265616479206d696e74656400000000604082015260600190565b6020808252601c908201527f6d6178204e465420706572206164647265737320657863656564656400000000604082015260600190565b60208082526024908201527f4552433732313a207472616e7366657220746f20746865207a65726f206164646040820152637265737360e01b606082015260800190565b60208082526019908201527f4552433732313a20617070726f766520746f2063616c6c657200000000000000604082015260600190565b6020808252602c908201527f4552433732313a206f70657261746f7220717565727920666f72206e6f6e657860408201526b34b9ba32b73a103a37b5b2b760a11b606082015260800190565b60208082526038908201527f4552433732313a20617070726f76652063616c6c6572206973206e6f74206f7760408201527f6e6572206e6f7220617070726f76656420666f7220616c6c0000000000000000606082015260800190565b6020808252602a908201527f4552433732313a2062616c616e636520717565727920666f7220746865207a65604082015269726f206164647265737360b01b606082015260800190565b60208082526029908201527f4552433732313a206f776e657220717565727920666f72206e6f6e657869737460408201526832b73a103a37b5b2b760b91b606082015260800190565b6020808252601690820152751b585e08139195081b1a5b5a5d08195e18d95959195960521b604082015260600190565b60208082526024908201527f6d6178206d696e7420616d6f756e74207065722073657373696f6e20657863656040820152631959195960e21b606082015260800190565b6020808252818101527f4552433732313a206d696e7420746f20746865207a65726f2061646472657373604082015260600190565b6020808252602c908201527f4552433732313a20617070726f76656420717565727920666f72206e6f6e657860408201526b34b9ba32b73a103a37b5b2b760a11b606082015260800190565b6020808252818101527f4f776e61626c653a2063616c6c6572206973206e6f7420746865206f776e6572604082015260600190565b6020808252601690820152751d1a194818dbdb9d1c9858dd081a5cc81c185d5cd95960521b604082015260600190565b60208082526029908201527f4552433732313a207472616e73666572206f6620746f6b656e2074686174206960408201526839903737ba1037bbb760b91b606082015260800190565b6020808252602f908201527f4552433732314d657461646174613a2055524920717565727920666f72206e6f60408201526e3732bc34b9ba32b73a103a37b5b2b760891b606082015260800190565b60208082526021908201527f4552433732313a20617070726f76616c20746f2063757272656e74206f776e656040820152603960f91b606082015260800190565b602080825260129082015271696e73756666696369656e742066756e647360701b604082015260600190565b60208082526031908201527f4552433732313a207472616e736665722063616c6c6572206973206e6f74206f6040820152701ddb995c881b9bdc88185c1c1c9bdd9959607a1b606082015260800190565b6020808252602c908201527f455243373231456e756d657261626c653a20676c6f62616c20696e646578206f60408201526b7574206f6620626f756e647360a01b606082015260800190565b60208082526017908201527f75736572206973206e6f742077686974656c6973746564000000000000000000604082015260600190565b6020808252601b908201527f6e65656420746f206d696e74206174206c656173742031204e46540000000000604082015260600190565b90815260200190565b60009081526020902090565b6000821982111561302157613021613106565b500190565b6000826130355761303561311c565b500490565b600081600019048311821515161561305457613054613106565b500290565b60008282101561306b5761306b613106565b500390565b60005b8381101561308b578181015183820152602001613073565b838111156114f85750506000910152565b6002810460018216806130b057607f821691505b602082108114156130d157634e487b7160e01b600052602260045260246000fd5b50919050565b60006000198214156130eb576130eb613106565b5060010190565b6000826131015761310161311c565b500690565b634e487b7160e01b600052601160045260246000fd5b634e487b7160e01b600052601260045260246000fd5b634e487b7160e01b600052604160045260246000fd5b6001600160e01b031981168114610ecb57600080fdfea2646970667358221220c8911651dd5f7bc0a3972ecb28d3cc891740d547f4bb704c4a99b4bb50f2548f64736f6c63430008000033",
  "immutableReferences": {},
  "source": "// SPDX-License-Identifier: GPL-3.0\r\n\r\npragma solidity >=0.7.0 <0.9.0;\r\n\r\nimport \"@openzeppelin/contracts/token/ERC721/extensions/ERC721Enumerable.sol\";\r\nimport \"@openzeppelin/contracts/access/Ownable.sol\";\r\n\r\ncontract SmartContract is ERC721Enumerable, Ownable {\r\n    using Strings for uint256;\r\n\r\n    string public baseURI;\r\n    string public baseExtension = \".json\";\r\n    string public notRevealedUri;\r\n    uint256 public cost = 0.069 ether;\r\n    uint256 public maxSupply = 9999;\r\n    uint256 public maxMintAmount = 20;\r\n    uint256 public nftPerAddressLimit = 20;\r\n    bool public paused = false;\r\n    bool public revealed = false;\r\n    bool public onlyWhitelisted = true;\r\n    address[] public whitelistedAddresses;\r\n    address[] public vipAddresses;\r\n    uint256[] public vipMaxMinted;\r\n    mapping(address => uint256) public addressMintedBalance;\r\n\r\n    constructor(\r\n        string memory _name,\r\n        string memory _symbol,\r\n        string memory _initBaseURI,\r\n        string memory _initNotRevealedUri\r\n    ) ERC721(_name, _symbol) {\r\n        setBaseURI(_initBaseURI);\r\n        setNotRevealedURI(_initNotRevealedUri);\r\n    }\r\n\r\n    // internal\r\n    function _baseURI() internal view virtual override returns (string memory) {\r\n        return baseURI;\r\n    }\r\n\r\n    // public\r\n    function mint(uint256 _mintAmount) public payable {\r\n        require(!paused, \"the contract is paused\");\r\n        uint256 supply = totalSupply();\r\n        require(_mintAmount > 0, \"need to mint at least 1 NFT\");\r\n        require(\r\n            _mintAmount <= maxMintAmount,\r\n            \"max mint amount per session exceeded\"\r\n        );\r\n        require(supply + _mintAmount <= maxSupply, \"max NFT limit exceeded\");\r\n\r\n        if (msg.sender != owner()) {\r\n            if (onlyWhitelisted == true) {\r\n                require(isWhitelisted(msg.sender), \"user is not whitelisted\");\r\n                uint256 ownerMintedCount = addressMintedBalance[msg.sender];\r\n                require(\r\n                    ownerMintedCount + _mintAmount <= nftPerAddressLimit,\r\n                    \"max NFT per address exceeded\"\r\n                );\r\n            }\r\n            if (isVIP(msg.sender)) {\r\n                uint256 vipMintAmount1 = vipMintAmount(msg.sender);\r\n                uint256 ownerMintedCount = addressMintedBalance[msg.sender];\r\n                require(\r\n                    ownerMintedCount + _mintAmount <= vipMintAmount1,\r\n                    \"max NFT per address exceeded\"\r\n                );\r\n            } else {\r\n                require(msg.value >= cost * _mintAmount, \"insufficient funds\");\r\n            }\r\n        }\r\n\r\n        for (uint256 i = 1; i <= _mintAmount; i++) {\r\n            addressMintedBalance[msg.sender]++;\r\n            _safeMint(msg.sender, supply + i);\r\n        }\r\n    }\r\n\r\n    function qtyLeftForVIP(address _user) public view returns (uint256) {\r\n        // uint256 supply = totalSupply();\r\n        uint256 ownerMintedCount = addressMintedBalance[_user];\r\n        uint256 vipMintAmount1 = vipMintAmount(_user);\r\n        uint256 allowed = (vipMintAmount1 - ownerMintedCount);\r\n        return allowed;\r\n    }\r\n\r\n    function qtyLeftForUser(address _user) public view returns (uint256) {\r\n        // uint256 supply = totalSupply();\r\n        uint256 ownerMintedCount = addressMintedBalance[_user];\r\n        uint256 allowed = (nftPerAddressLimit - ownerMintedCount);\r\n        return allowed;\r\n    }\r\n\r\n    function isWhitelisted(address _user) public view returns (bool) {\r\n        for (uint256 i = 0; i < whitelistedAddresses.length; i++) {\r\n            if (whitelistedAddresses[i] == _user) {\r\n                return true;\r\n            }\r\n        }\r\n        for (uint256 i = 0; i < vipAddresses.length; i++) {\r\n            if (vipAddresses[i] == _user) {\r\n                return true;\r\n            }\r\n        }\r\n        return false;\r\n    }\r\n\r\n    function isVIP(address _user) public view returns (bool) {\r\n        for (uint256 i = 0; i < vipAddresses.length; i++) {\r\n            if (vipAddresses[i] == _user) {\r\n                return true;\r\n            }\r\n        }\r\n        return false;\r\n    }\r\n\r\n    function vipMintAmount(address _user) public view returns (uint256) {\r\n        for (uint256 i = 0; i < vipAddresses.length; i++) {\r\n            if (vipAddresses[i] == _user) {\r\n                return vipMaxMinted[i];\r\n            }\r\n        }\r\n        return 0;\r\n    }\r\n\r\n    function walletOfOwner(address _owner)\r\n        public\r\n        view\r\n        returns (uint256[] memory)\r\n    {\r\n        uint256 ownerTokenCount = balanceOf(_owner);\r\n        uint256[] memory tokenIds = new uint256[](ownerTokenCount);\r\n        for (uint256 i; i < ownerTokenCount; i++) {\r\n            tokenIds[i] = tokenOfOwnerByIndex(_owner, i);\r\n        }\r\n        return tokenIds;\r\n    }\r\n\r\n    function tokenURI(uint256 tokenId)\r\n        public\r\n        view\r\n        virtual\r\n        override\r\n        returns (string memory)\r\n    {\r\n        require(\r\n            _exists(tokenId),\r\n            \"ERC721Metadata: URI query for nonexistent token\"\r\n        );\r\n\r\n        if (revealed == false) {\r\n            return notRevealedUri;\r\n        }\r\n\r\n        string memory currentBaseURI = _baseURI();\r\n        return\r\n            bytes(currentBaseURI).length > 0\r\n                ? string(\r\n                    abi.encodePacked(\r\n                        currentBaseURI,\r\n                        tokenId.toString(),\r\n                        baseExtension\r\n                    )\r\n                )\r\n                : \"\";\r\n    }\r\n\r\n    //only owner\r\n    function reveal() public onlyOwner {\r\n        revealed = true;\r\n    }\r\n\r\n    function setNftPerAddressLimit(uint256 _limit) public onlyOwner {\r\n        nftPerAddressLimit = _limit;\r\n    }\r\n\r\n    function setCost(uint256 _newCost) public onlyOwner {\r\n        cost = _newCost;\r\n    }\r\n\r\n    function setmaxMintAmount(uint256 _newmaxMintAmount) public onlyOwner {\r\n        maxMintAmount = _newmaxMintAmount;\r\n    }\r\n\r\n    function setBaseURI(string memory _newBaseURI) public onlyOwner {\r\n        baseURI = _newBaseURI;\r\n    }\r\n\r\n    function setBaseExtension(string memory _newBaseExtension)\r\n        public\r\n        onlyOwner\r\n    {\r\n        baseExtension = _newBaseExtension;\r\n    }\r\n\r\n    function setNotRevealedURI(string memory _notRevealedURI) public onlyOwner {\r\n        notRevealedUri = _notRevealedURI;\r\n    }\r\n\r\n    function pause(bool _state) public onlyOwner {\r\n        paused = _state;\r\n    }\r\n\r\n    function setOnlyWhitelisted(bool _state) public onlyOwner {\r\n        onlyWhitelisted = _state;\r\n    }\r\n\r\n    function whitelistUsers(address[] calldata _users) public onlyOwner {\r\n        delete whitelistedAddresses;\r\n        whitelistedAddresses = _users;\r\n    }\r\n\r\n    function vipUsers(address[] calldata _users) public onlyOwner {\r\n        delete vipAddresses;\r\n        vipAddresses = _users;\r\n    }\r\n\r\n    function vipUsersMaxMint(uint256[] calldata _numberofmints)\r\n        public\r\n        onlyOwner\r\n    {\r\n        delete vipMaxMinted;\r\n        vipMaxMinted = _numberofmints;\r\n    }\r\n\r\n    function withdraw() public payable onlyOwner {\r\n        (bool success, ) = payable(msg.sender).call{\r\n            value: address(this).balance\r\n        }(\"\");\r\n        require(success);\r\n    }\r\n}\r\n",
  "sourcePath": "C:\\Users\\deon\\Documents\\GitHub\\perfectmatchsociety\\contracts\\SmartContract.sol",
  "compiler": {
    "name": "solc",
    "version": "0.8.0+commit.c7dfd78e.Emscripten.clang"
  },
  "schemaVersion": "3.4.3",
  "updatedAt": "2022-01-15T01:33:09.291Z",
  "networkType": "ethereum",
  "devdoc": {
    "kind": "dev",
    "methods": {
      "approve(address,uint256)": {
        "details": "See {IERC721-approve}."
      },
      "balanceOf(address)": {
        "details": "See {IERC721-balanceOf}."
      },
      "getApproved(uint256)": {
        "details": "See {IERC721-getApproved}."
      },
      "isApprovedForAll(address,address)": {
        "details": "See {IERC721-isApprovedForAll}."
      },
      "name()": {
        "details": "See {IERC721Metadata-name}."
      },
      "owner()": {
        "details": "Returns the address of the current owner."
      },
      "ownerOf(uint256)": {
        "details": "See {IERC721-ownerOf}."
      },
      "renounceOwnership()": {
        "details": "Leaves the contract without owner. It will not be possible to call `onlyOwner` functions anymore. Can only be called by the current owner. NOTE: Renouncing ownership will leave the contract without an owner, thereby removing any functionality that is only available to the owner."
      },
      "safeTransferFrom(address,address,uint256)": {
        "details": "See {IERC721-safeTransferFrom}."
      },
      "safeTransferFrom(address,address,uint256,bytes)": {
        "details": "See {IERC721-safeTransferFrom}."
      },
      "setApprovalForAll(address,bool)": {
        "details": "See {IERC721-setApprovalForAll}."
      },
      "supportsInterface(bytes4)": {
        "details": "See {IERC165-supportsInterface}."
      },
      "symbol()": {
        "details": "See {IERC721Metadata-symbol}."
      },
      "tokenByIndex(uint256)": {
        "details": "See {IERC721Enumerable-tokenByIndex}."
      },
      "tokenOfOwnerByIndex(address,uint256)": {
        "details": "See {IERC721Enumerable-tokenOfOwnerByIndex}."
      },
      "tokenURI(uint256)": {
        "details": "See {IERC721Metadata-tokenURI}."
      },
      "totalSupply()": {
        "details": "See {IERC721Enumerable-totalSupply}."
      },
      "transferFrom(address,address,uint256)": {
        "details": "See {IERC721-transferFrom}."
      },
      "transferOwnership(address)": {
        "details": "Transfers ownership of the contract to a new account (`newOwner`). Can only be called by the current owner."
      }
    },
    "version": 1
  },
  "userdoc": {
    "kind": "user",
    "methods": {},
    "version": 1
  }
}